:020000000C945E
:100002004E000C9400000C9400000C9400000C9420
:1000120000000C9400000C9400000C9400000C945E
:1000220000000C9400000C9400000C9400000C944E
:1000320000000C9400000C9400000C9400000C943E
:1000420000000C9400000C9400000C9400000C942E
:1000520000001027E80364000A00010000100001FC
:10006200100001004C612074656E73696F6E20652B
:100072007374203A202E2056202020202020202079
:100082002020200080C01000600266000F00710274
:1000920076000200820286000000F894EE27ECBB94
:1000A200F1E0FBBFEBBFE5BF8DE0A2E0BB27ED9324
:1000B2008A95E9F780E098E0A0E6ED930197E9F7E9
:1000C200E8E8F0E085919591009761F0A591B591EE
:1000D20005901590BF01F00105900D920197E1F78F
:1000E200FB01F0CFEFE5EDBFE8E0EEBFC0E6D2E006
:1000F2000C9489001A931A2FE12FE062E7B98BE181
:100102008A95F1F7369A349BFECF349AE5B1EAC06C
:1001120010E0E0E0EABBEBBBE7BBE8BBE4BBE5BB5E
:10012200E1BBE2BBE3BFE2BFECBFEFBDEEBDEDBDA5
:10013200ECBDE7BDE6BDEBBDEABDE9BDE8BDE2BD94
:10014200E5BDE4BDE3BDE9BFE5BFE4BFEAB9E0E870
:10015200E8B9E0E2E7B9E3EAE6B9E0E0E0BFEDB929
:10016200E6BFA0E196D0E0E0EA93A0E054D0A0E69A
:10017200B2E080D0E0E0EA93A1E04DD0A1E7B2E0A6
:1001820079D0A2E0B7DF1E2FA12FB0E0E5E0F0E0CA
:10019200EAD01E2FA9D0A6E0EA02F001E10FEF702B
:1001A200E05DE0937302612F77279ED0A6E0B0E076
:1001B200C2D0DB01AE0FBF1FE0EFF0E0EA23FB236A
:1001C200DF01E0E1F0E0CFD0E05DE0937102D2CF59
:1001D200FFCF1A931A2FE8B3EF70AE2FE12FE07F13
:1001E200EA2BE8BB8DE08A95F1F7C29A8DE08A95F9
:1001F200F1F7C2988DE08A95F1F774C0AA93A881AD
:10020200E8DFE881E295E883A881E3DF85E88A9563
:10021200F1F7219608951A930A931A2F0A81E12F72
:10022200F0E0EE57FD4FE081E00FAE2FE7DF502EFA
:10023200412E1981088123960895A2E05BD0ACE09B
:10024200DDDFA1E057D0E0E04E2E5E2E08951A9336
:100252001A2F1A3011F0571438F0E0E0EA93439461
:10026200A42DD9DF1A30F1F15394C09AA12FC6DF21
:10027200C09838C04AD09D01D9012F5F3F4FEC9101
:100282001E2FE03019F0A12FE2DFF6CF43D02496E3
:1002920008951A931A2FE7B3E06FE7BBBA9AB89A98
:1002A200B99AC298C098C198712EE12FE058E09394
:1002B2008402E12FE054E0938502A4E1B0E066D02D
:1002C2001DD01CD01BD0A0E284DF88EC90E0019707
:1002D200F1F7A8E293DFA4E091DFA5E88FDFA6E0C3
:1002E2008DDFABDF19910895A12FB0E0EAE0F0E0D5
:1002F2003AD0089583DFA3E0B0E048C0A0E369DF0D
:1003020088EC90E00197F1F708953A932A931A93B3
:100312000A9308953B812A81198108810895F195F4
:10032200E195F0400895FA9FF02DEB9FF00DEA9FC2
:10033200E02DF10D08951CD0F6DF0EF4F0DF0895E4
:100342000024112490E1AA0FBB1F001C111C0E1ADD
:100352001F0A18F40E0E1F1E01C0A1609A9599F78C
:10036200FD01D001089504D0EBDF0EF4D8DF08952B
:10037200E894F7FF02C0D3DF6894B7FF06C0B195D7
:10038200A195B04000F8039400FA0895109639F050
:10039200A89580ED97E00197F1F71197C9F70895B5
:00000001FF
