:020000000C945E
:1000020048000C9400000C9400000C9400000C9426
:1000120000000C9400000C9400000C9400000C945E
:1000220000000C9400000C9400000C9400000C944E
:1000320000000C9400000C9400000C9400000C943E
:1000420000000C9400000C9400000C9400000C942E
:1000520000001027E80364000A00010000100001FC
:10006200100001000000000020202020202020207D
:10007200202020202020202080C0040004006600D0
:10008200100060026A00020071027A000000F89417
:10009200EE27ECBBF1E0FBBFEBBFE5BF8DE0A2E0DA
:1000A200BB27ED938A95E9F780E098E0A0E6ED930F
:1000B2000197E9F7ECE7F0E085919591009761F0FF
:1000C200A591B59105901590BF01F00105900D9293
:1000D2000197E1F7FB01F0CFEFE5EDBFE8E0EEBFFE
:1000E200C0E6D2E00C947500E0E0EABBEBBBE7BBF4
:1000F200E8BBE4BBE5BBE1BBE2BBE3BFE2BFECBFF5
:10010200EFBDEEBDEDBDECBDE7BDE6BDEBBDEABDAD
:10011200E9BDE8BDE2BDE5BDE4BDE3BDE9BFEBB7C6
:10012200E06CEBBFEFE0E5BFE0E0E4BFE0ECEABF8C
:10013200E0E0EAB9E0E8E8B9E0E0E0BFE6B9EDB94D
:10014200E6BFA0E1A0D07894E0E0EA93A0E05AD024
:10015200A0E6B2E089D0A2E3B0E008D1E52DEF70CD
:100162009E2EE42DEF708E2EE9E0E915A1F4E9E967
:10017200E51571F45524E9E0E81541F4E9E9E415DF
:1001820011F4442402C0E7E04E0E01C0439402C0C1
:10019200E7E05E0E01C05394E52DEF70E05DE09361
:1001A2006302E52D9CD0E0936202E42DEF70E05DE6
:1001B200E0936102E42D93D0E0936002C5CFFFCFBC
:1001C2001A931A2FE8B3EF70AE2FE12FE07FEA2BDC
:1001D200E8BB8DE08A95F1F7C29A8DE08A95F1F736
:1001E200C2988DE08A95F1F778C0AA93A881E8DFDA
:1001F200E881E295E883A881E3DF85E88A95F1F753
:10020200219608951A930A931A2F0A81E12FF0E09A
:10021200EF58FD4FE081E00FAE2FE7DFD02EC12E69
:100222001981088123960895A2E061D0ACE0DDDF58
:10023200A1E05DD0E0E0CE2EDE2E08951A931A2FB3
:100242001A3021F0E0917502DE1640F0E0E0EA9308
:10025200C394AC2DD7DF1A3009F43FC0D394C09AAF
:10026200A12FC3DFC09839C04DD09D01D9012F5FA6
:100272003F4FEC911E2FE03019F0A12FDFDFF6CFB8
:1002820046D0249608951A931A2FE7B3E06FE7BB7E
:10029200BA9AB89AB99AC298C098C198109375023E
:1002A200E12FE058E0937302E12FE054E0937402EF
:1002B200A4E1B0E05BD01FD01ED01DD0A0E280DF51
:1002C20088EC90E00197F1F7A8E28FDFA4E08DDFE0
:1002D200A5E88BDFA6E089DFA7DF19910895E07F0B
:1002E200F0E0DF01E0E1F0E02ED0E05D08957DDF97
:1002F200A3E0B0E03BC0A0E363DF88EC90E00197AD
:10030200F1F708953A932A931A930A9308953B8139
:100312002A81198108810895F195E195F0400895A7
:100322000024112490E1AA0FBB1F001C111C0E1AFD
:100332001F0A18F40E0E1F1E01C0A1609A9599F7AC
:10034200FD01D001089504D0EBDF0EF4E5DF08953E
:10035200E894F7FF02C0E0DF6894B7FF06C0B195EA
:10036200A195B04000F8039400FA0895109639F070
:10037200A89580ED97E00197F1F71197C9F70895D5
:00000001FF
