:100000000C942A000C9445000C9448000C940000B9
:100010000C9400000C9400000C9400000C94000060
:100020000C9400000C9400000C9400000C94000050
:100030000C9400000C9400000C9400000C94000040
:100040000C9400000C9400000C9400000C94000030
:100050000C940000F894EE27ECBBF1E0FBBFEBBF83
:10006000E5BF8DE0A2E0BB27ED938A95E9F780E03C
:1000700098E0A0E6ED930197E9F7EFE5EDBFE8E042
:10008000EEBFC0E6D2E00C944D00EA93E0E802C077
:10009000EA93E0ECEBBBE9911895EFEFEABBE0E007
:1000A000EBBBE7BBE8BBE4BBE5BBE1BBE2BBE3BF4B
:1000B000E2BFECBFEFBDEEBDEDBDECBDE7BDE6BD03
:1000C000EBBDEABDE9BDE8BDE2BDE5BDE4BDE3BD14
:1000D000E9BFEBB7E06CEBBFEFE0E5BFE0E0E4BF0A
:1000E000E0ECEABFE0E0EAB9E0E8E8B9E0E0E0BF70
:1000F000E6B9EDB9E6BF7894E0E4EBBBFFCFFFCF04
:00000001FF
