:0C0000000C9431000C945E000C94000085
:10000C000C9400000C9400000C9400000C94000064
:10001C000C9400000C9400000C9400000C94000054
:10002C000C9400000C9400000C9400000C94000044
:10003C000C9400000C9400000C9400000C94000034
:10004C000C9400000C94000000000000000006005E
:10005C00040054000000F894EE27ECBBF1E0FBBF69
:10006C00EBBFE5BF8DE0A2E0BB27ED938A95E9F7E6
:10007C0080E098E0A0E6ED930197E9F7EAE5F0E07F
:10008C0085919591009761F0A591B591059015908A
:10009C00BF01F00105900D920197E1F7FB01F0CF44
:1000AC00EFE5EDBFE8E0EEBFC0E6D2E00C945F00F8
:1000BC001895E0E0EABBEBBBE7BBE8BBEFEFE4BBBA
:1000CC00E0E0E5BBE1BBE2BBE3BFE2BFECBFEFBDF1
:1000DC00EEBDEDBDECBDE7BDE6BDEBBDEABDE9BDDA
:1000EC00E8BDE2BDE5BDE4BDE3BDE9BFEBB7E0644F
:1000FC00EBBFE0E0E5BFE4BFE0E4EABFE0E0EAB973
:10010C00E0E8E8B9E0E0E0BFE6B9EDB9E6BF789425
:10011C0045BAA8EEB3E022D0F201EF70F0703F01C7
:10012C00E0E0F0E04F013097A1F0E9E0F0E0E615F7
:10013C00F70561F4E0E1F0E0E615F70519F4442465
:10014C00552403C0F20137962F0103C0F2013196FA
:10015C002F01F40131964F01DBCFFFCF109639F010
:10016C00A89580ED97E00197F1F71197C9F70895DD
:00000001FF
