:0C0000000C942A000C9400000C940000EA
:10000C000C9400000C9400000C9400000C94000064
:10001C000C9400000C9400000C9400000C94000054
:10002C000C9400000C9400000C9400000C94000044
:10003C000C9400000C9400000C9400000C94000034
:10004C000C9400000C940000F894EE27ECBBF1E04B
:10005C00FBBFEBBFE5BF8DE0A2E0BB27ED938A951C
:10006C00E9F780E098E0A0E6ED930197E9F7EFE57A
:10007C00EDBFE8E0EEBFC0E6D2E00C9454001A935A
:10008C001A2FE12FE062E7B98BE18A95F1F7369AE6
:10009C00349BFECF349AE5B11991089510E0E0E05D
:1000AC00EABBEBBBE7BBE8BBEFEFE4BBE0E0E5BBD7
:1000BC00E1BBE2BBE3BFE2BFECBFEFBDEEBDEDBD0C
:1000CC00ECBDE7BDE6BDEBBDEABDE9BDE8BDE2BDFB
:1000DC00E5BDE4BDE3BDE9BFE5BFE4BFEAB9E0E8D7
:1000EC00E8B9E0E2E7B9E3EAE6B9E0E0E0BFEDB990
:1000FC00E6BFA2E0C4DF1E2FA12FB0E0E5E0F0E0E8
:10010C0024D01E2FA12FB0E0EAE0F0E01ED0A6E034
:10011C00EA02F001E10FE5BBECCFFFCFF195E195E1
:10012C00F04008950024112490E1AA0FBB1F001C7D
:10013C00111C0E1A1F0A18F40E0E1F1E01C0A1600E
:10014C009A9599F7FD01D001089504D0EBDF0EF4D8
:10015C00E5DF0895E894F7FF02C0E0DF6894B7FF8D
:10016C0006C0B195A195B04000F8039400FA08952B
:00000001FF
