:060000000C9432000C9488
:100006005F000C9467000C9400000C9400000C94A4
:1000160000000C9400000C9400000C9400000C945A
:1000260000000C946E000C9400000C9400000C94DC
:1000360000000C9400000C9400000C9400000C943A
:1000460000000C9400000C9400000C9400000000CA
:1000560000000000A00F0800040054000000F894FF
:10006600EE27ECBBF1E0FBBFEBBFE5BF8DE0A2E006
:10007600BB27ED938A95E9F780E098E0A0E6ED933B
:100086000197E9F7ECE5F0E085919591009761F02D
:10009600A591B59105901590BF01F00105900D92BF
:1000A6000197E1F7FB01F0CFEFE5EDBFE8E0EEBF2A
:1000B600C0E6D2E00C949600EA93FA93E0EEFEE2F4
:1000C6005F01F991E991189566D0AA24BB24E0E472
:1000D600F6E05F0123C05FD0A814B904E1F445BA85
:1000E600F201EF70F0703F01E9E0F0E0E615F70588
:1000F60061F4E9E9F0E0E415F50519F44424552422
:1001060003C0F20137962F0103C0F20131962F0189
:100116008824992403C0F40131964F01E991EFBF79
:10012600F991E9911895E0E0EABBEBBBE7BBE8BBC8
:10013600EFEFE4BBE0E0E5BBE1BBE2BBE2E0E3BF3F
:10014600E0E0E2BFE9EFECBFE0E0EFBDEEBDEDBD04
:10015600ECBDE7BDE6BDEBBDEABDE9BDE8BDE2BD70
:10016600E5BDE4BDE3BDE2E0E9BFEBB7E06CEBBFA4
:10017600EFE0E5BFE0E0E4BFE0ECEABFE0E0EAB9CB
:10018600E0E8E8B9E0E0E0BFE6B9EDB9E6BF7894AB
:1001960045BAFECFFFCFEA93FA93EFB7EA930895F5
:00000001FF
