:060000000C9450000C946A
:100006007D000C9400000C9400000C9400000C94ED
:1000160000000C9400000C9400000C9400000C945A
:1000260000000C9400000C9400000C9400000C944A
:1000360000000C9400000C9400000C9400000C943A
:1000460000000C9400000C9400000C940000102793
:10005600E80364000A00010000100001100001001E
:100066000000636F646520746F75636865203A20CD
:10007600546F756368652020202020203A2080C0B8
:100086000100050066000E00600268000E007102A5
:1000960076000200820284000000F894EE27ECBB92
:1000A600F1E0FBBFEBBFE5BF8DE0A2E0BB27ED9320
:1000B6008A95E9F780E098E0A0E6ED930197E9F7E5
:1000C600E6E8F0E085919591009761F0A591B591EC
:1000D60005901590BF01F00105900D920197E1F78B
:1000E600FB01F0CFEFE5EDBFE8E0EEBFC0E6D2E002
:1000F6000C94A6000A921A92FA926A937A938A93B9
:100106009A93AA93BA93EA93FA93EFB7EA93AAE07B
:10011600B0E0B4D153B2E0EFE4BB55BAE3B3E50DBA
:100126004E2E5ED1A4E6B0E0A9D1E991EFBFF991D8
:10013600E991B991A9919991899179916991F990EA
:10014600199009901895EFEFEABBE0E0EBBBE7BB2F
:10015600E8BB46D1E0E0E1BBE2BBE3BFE2BFECBFF8
:10016600EFBDEEBDEDBDECBDE7BDE6BDEBBDEABD49
:10017600E9BDE8BDE2BDE5BDE4BDE3BDE9BFEBB762
:10018600E064EBBFE3E0E5BFE0E0E4BFE0E4EABF44
:10019600E0E0EAB9E0E8E8B9E0E0E0BFE6B9EDB9E9
:1001A600E6BFA0E1F2D0E0E0EA93A0E0B0D0A0E69E
:1001B600B2E0DCD0E0E0EA93A1E0A9D0A1E7B2E0AA
:1001C600D5D078944BBAEEEEE41529F40ED111D1C0
:1001D60016D1A1E3B8D0EEEDE41529F406D115D178
:1001E6000ED1A2E3B0D0EEEBE41529F4FED013D184
:1001F60006D1A3E3A8D0EDEEE41529F4F6D0F9D0A4
:1002060010D1A4E3A0D0EDEDE41529F4EED0FDD095
:1002160008D1A5E398D0EDEBE41529F4E6D0FBD0A0
:1002260000D1A6E390D0EBEEE41529F4DED0E1D0C0
:10023600FED0A7E388D0EBEDE41529F4D6D0E5D0BF
:10024600F6D0A8E380D0EBEBE41529F4CED0E3D0CA
:10025600EED0A9E378D0E7EEE41529F4C6D0C9D0EC
:10026600ECD0A0E370D0E7EDE41529F4BED0CDD0F4
:10027600E4D0A1E468D0E7EBE41529F4B6D0CBD0FE
:10028600DCD0A2E460D0EEE7E41529F4AED0DBD0F2
:10029600B6D0A3E458D0EDE7E41529F4A6D0D3D020
:1002A600C0D0A4E450D0EBE7E41529F49ED0CBD01F
:1002B600BED0A5E448D0E7E7E41529F496D0C3D02C
:1002C600BCD0A6E440D07ECFFFCF1A931A2FE8B356
:1002D600EF70AE2FE12FE07FEA2BE8BB8DE08A9529
:1002E600F1F7C29A8DE08A95F1F7C2988DE08A956A
:1002F600F1F774C0AA93A881E8DFE881E295E88364
:10030600A881E3DF85E88A95F1F7219608951A9387
:100316000A931A2F0A81E12FF0E0EE57FD4FE08194
:10032600E00FAE2FE7DF702E612E1981088123962C
:100336000895A2E08ED0ACE0DDDFA1E08AD0E0E057
:100346006E2E7E2E08951A931A2F1A3011F07914F4
:1003560038F0E0E0EA936394A62DD9DF1A30F1F184
:100366007394C09AA12FC6DFC09838C07DD09D0176
:10037600D9012F5F3F4FEC911E2FE03019F0A12FCE
:10038600E2DFF6CF76D0249608951A931A2FE7B3B4
:10039600E06FE7BBBA9AB89AB99AC298C098C19862
:1003A600912EE12FE058E0938402E12FE054E09390
:1003B6008502A4E1B0E062D050D04FD04ED0A0E28A
:1003C60084DF88EC90E00197F1F7A8E293DFA4E0E0
:1003D60091DFA5E88FDFA6E08DDFABDF19910895E9
:1003E600EFE0E4BBE0E0E5BB0895EEE0EA93A0E0D1
:1003F6008ECFA5E4A8DFEFE0EA93A0E088CFA5E4DE
:10040600A2DFEEE0EA93A1E082CFA4E49CDFEFE076
:10041600EA93A0E07CCFA2E496DFEFE0EA93A0E0C7
:1004260076CFA4E490DFEEE0EA93A1E070CFA2E4F9
:100436008ADFEEE0EA93A1E06ACFA7E384DFEEE08D
:10044600EA93A1E064CFA7E37EDFEFE0EA93A0E0C2
:100456005ECF50DFA3E0B0E011C0A0E336DF88EC4A
:1004660090E00197F1F708953A932A931A930A9325
:1004760008953B812A81198108810895109639F0E3
:10048600A89580ED97E00197F1F71197C9F70895C0
:00000001FF
